:040000004EEF00F0CF
:10000800FACF02F0FBCF03F0E9CF04F0EACF05F016
:10001800E1CF06F0E2CF07F0D9CF08F0DACF09F048
:10002800F3CF0AF0F4CF0BF0F6CF0CF0F7CF0DF0CA
:10003800F8CF0EF0F5CF0FF0F2B4F2AA0ED0D768D1
:100048003C0ED66EF294550E7AEC01F0DD0E7AEC89
:1000580001F0000E7AEC01F000D00FC0F5FF0EC0E1
:10006800F8FF0DC0F7FF0CC0F6FF0BC0F4FF0AC085
:10007800F3FF09C0DAFF08C0D9FF07C0E2FF06C0D6
:10008800E1FF05C0EAFF04C0E9FF03C0FBFF02C0AF
:10009800FAFF110066EF01F0010E106E000E126EED
:1000A800810E116E010E3BEC01F0610E73EC01F054
:1000B80020EE60F010EE21F01F0EDBCFE3FFE80624
:1000C800FCE2000E106E000E116E000E126E050E90
:1000D8000EEC01F0000E206E00D0210E186E000EFE
:1000E800196EDCEC00F0000E206E0DD02050010DD2
:1000F800210EF324D96E000EF420DA6EDF5073EC73
:1001080001F0202A00D020501D6E1E6A3F501D5C51
:100118001E50800A1F6E4050800A1F58D8B0DDD785
:10012800E5D7DBD74EEF00F0000E176E2ED0175034
:10013800010DF3501024D96EF4501120DA6EDF50FF
:10014800156E1750136E146A010E1326000E142232
:1001580013501024D96E14501120DA6EDF50166E29
:1001680017C013F0D890133213501024D96E000E14
:100178001120DA6E16C014F00F0E14161538F00B95
:100188001410DF6E020E172600D01250175CD8A08C
:10019800CED7D8901730136E146A20EE1EF0105088
:1001A800D9261150DA2213C0DEFF14C0DDFF120079
:1001B800C7A01200C9CF1AF01A50F00BA00AD8A491
:1001C80012001A500F0B020DF3CF1BF0000E1C6E1D
:1001D800000E1C6E10D08B8C00D0C7A0FED71C5010
:1001E800010DF3501824D96EF4501920DA6EC9CFD6
:1001F800DFFF1C2A00D01B501C5CD8A0ECD78B9CBE
:1002080018C010F019C011F01BC012F098EC00F0E3
:1002180012001200136E949EC6501318F00B131898
:10022800C66E10B002D0C69801D0C68812B002D0EF
:10023800C79E01D0C78E050E1318D8B404D0040E7B
:100248001318D8A409D0938C040E1318D8B4948C1E
:10025800C79C949C8B9C08D0939C948C7F9011B0E5
:1002680002D0C79C01D0C78C7F94C68A1200136E37
:100278007E9A7F96938A939E949094821350D8A4E2
:1002880004D0000E156E000E03D0000E156E080E79
:10029800146E00D014C0B8FF1050D8A404D0000EBB
:1002A800176E200E03D0000E176E240E166E00D0A7
:1002B80016C0ACFF1250B06E11C0AFFF900EAB6EFF
:1002C8008B80120000EE60F0200EEE6AE806FDE179
:1002D800426A416A000EF86E000150EF00F0106E9D
:1002E80000D0ACA2FED710C0ADFF1200016E00D046
:0A02F800ACA2FED701C0ADFF12005A
:020000040020DA
:08000000FFFFFFFFFFFFFFFF00
:020000040030CA
:0E000000FF221F1EFF8881FF03C003E00340A4
:00000001FF
