:0400000002EF0FF00C
:101E0400226A216A000140EF0FF0016E00D0ACA2FB
:101E1400FED701C0ADFF1200046EB18ECF0EB11615
:101E2400B1920450D8B403D0036A032A01D0036AE0
:101E3400B1500318FE0B0318B16E01C021F002C0AB
:101E440022F01200000E086E000E076E0CD0075030
:101E54000224D96E08500320DA6EDF5007EC0FF02D
:101E6400074A082A00D00450075C0850800A066E0E
:101E74000550800A0658D8A0EAD71200010E056E54
:101E8400000E076E040E066E010E70EC0FF0070EC6
:101E94000D6E7D0EE82EFED70D2EFCD700F0000E41
:101EA4000F6E000E0E6E00D0100E016E000E026E4C
:101EB400A2EC0FF001C00EF002C00FF00E500F1094
:101EC400D8B4F2D7100E026E000E036E20C004F0D8
:101ED400056A24EC0FF0E8D700EF00F0086E7F925B
:101EE4007F96938A939E939C948E0850D8A404D092
:101EF400000E0A6E000E03D0000E0A6E080E096E64
:101F040000D009C0B8FF0550D8A404D0000E0C6E50
:101F1400200E03D0000E0C6E240E0B6E00D00BC0EE
:101F2400ACFF0750B06E06C0AFFF900EAB6EFF0E55
:101F3400026E500E016E000E0EEC0FF08A8C120031
:101F4400000E086E000E076E000E066E000E056E83
:101F5400ABA202D0AB98AB88AECF04F0AECF04F006
:101F640082BE36D08A9C00D09EAAFED7AECF05F0A2
:101F7400066A06BE06D0065025E1100E055CD8B0F0
:101F840021D006BE1FD0065013E10504D8B010D0EE
:101F940019D00ED000D09EAAFED707500124D96EC6
:101FA40008500220DA6EAECFDFFF074A082A00D0BD
:101FB4000550075C0850800A036E0650800A0358D7
:101FC400D8A0E9D78A8C00D082BE02D0FDD700D039
:101FD40020EE10F00150D9260250DA2207C0DFFFAC
:101FE40007500124D96E08500220DA6E000EDF6E0D
:0C1FF40007C001F008C002F0120012004B
:020000040020DA
:08000000FFFFFFFFFFFFFFFF00
:020000040030CA
:0E000000FF221F1EFF8881FF03C003E00340A4
:00000001FF
