:0400000039EF0CF0D8
:1017F400016E01C0B1FF1200A19201C0B2FF02C08C
:10180400B3FF1200A1A202D0010E1200000E1200BA
:101814001200016E00D09EA8FED701C0ADFF1200D9
:10182400000E046E000E056E000EA3EC0CF0120008
:10183400120020EE01F00150D9260250DA22DF50C6
:1018440012001200016E01C0C9FF00D0C7A0FED76C
:10185400C6BEC69EC950120020EE01F00150D92622
:101864000250DA22DF500008200F1200120000EEAE
:1018740060F0440EEE6AE806FDE15A6A000EF86E66
:1018840000014BEF0EF020EE01F00150D92602507A
:10189400DA22DF50D8A402D0010E1200000E12008A
:1018A40012000A6E7E9A7F969490948208C001F08A
:1018B40009C002F00A501FEC0DF08B80120000D01A
:1018C400C7A0FED7C9CF03F05AC0C9FFC6AC02D027
:1018D400C69C036803C001F0026A1200036E035041
:1018E400D8B40ED09EAA09D001C0D9FF02C0DAFF35
:1018F400AECFDFFF010E120003D0000E120000D0A5
:10190400000E9EBA010E12001200036E035030093D
:10191400016E000EDEEC0CF07E947F90040E031832
:10192400D8B404D0050E0318D8A404D09294899492
:10193400948C12009284949C8B9CF188F088120001
:101944001200066E0650D8B412D0C7A00DD061ECB8
:101954000CF004C0D9FF05C0DAFF01C0DEFF02C0ED
:10196400DDFF010E120003D0000E120000D0C7A04C
:1019740002D0010E1200000E120012000350F00BF0
:10198400A00AD8A4120002D0120008D00450F00B10
:10199400A00AD8A4120002D0120000D004C005F09E
:1019A4000F0E05160338F00B051001C0D9FF02C055
:1019B400DAFFDF6E12001200026E949E7F94938809
:1019C40002C0C7FF01C0C6FFC6500F0B050AD8B43A
:1019D40005D0C6500F0B040AD8A40AD0938CC65065
:1019E4000F0B040AD8A402D07F90948CC79E1200D7
:1019F400939C12001200000E096E07C001F008C08B
:101A040002F0C1EC0DF001C00AF002C00BF00FD0DF
:101A14000A500BEC0CF007C001F008C002F0C1EC56
:101A24000DF001C00AF002C00BF0092A00D00A2808
:101A3400EFE10B28D8A4ECD71200076E7F9607B409
:101A440004D0000E046E200E03D0000E046E240E8B
:101A5400036E00D003C0ACFF900EAB6E07B604D08B
:101A6400000E066E000E03D0000E066E080E056E04
:101A740000D005C0B8FF0250B06E01C0AFFF120025
:101A8400066E01C0D9FF02C0DAFFA00EDF6E03C0EC
:101A9400D9FF04C0DAFFA00EDF6E06C005F0053AD8
:101AA4000F0E051601C0D9FF02C0DAFF0550DF1280
:101AB40006C005F00F0E051603C0D9FF04C0DAFFF7
:101AC4000550DF12120020EE01F00150D926025019
:101AD400DA22DF50D8A403D001680268120001C0E2
:101AE400D9FF02C0DAFFDF50036E0350010D020E6E
:101AF400F326000EF422F3500124D96EF450022090
:101B0400DA6EDF50046E0450056E066A05C001F0FB
:101B140006C002F01200120020EE01F00150D92696
:101B24000250DA22200EDE18D8B4120001D01200BE
:101B340020EE01F00150D9260250DA22DF50046E63
:101B440001C0D9FF02C0DAFFDF5004241F0B056E69
:101B54000550010D020EF326000EF422F350012469
:101B6400D96EF4500220DA6E03C0DFFF20EE01F0DC
:101B74000150D9260250DA22DF2A1200120020EE88
:101B840001F00150D9260250DA22DF50D8A403D044
:101B940001680268120001C0D9FF02C0DAFFDF50F9
:101BA400036E0350010D020EF326000EF422F350CF
:101BB4000124D96EF4500220DA6EDF50046E045012
:101BC400056E066A01C0D9FF02C0DAFFDF50036E5A
:101BD40003281F0B01C0D9FF02C0DAFFDF6E20EE1D
:101BE40001F00150D9260250DA22DF0605C001F0C7
:101BF40006C002F012001200898489943DD061EC81
:101C04000CF00150096E300E0918D8B41200100EF1
:101C14000918D8B41200200E0918D8B412000928E3
:101C2400D8B4120001D0120061EC0CF001500A6E1D
:101C3400300E0A18D8B41200100E0A18D8B41200C4
:101C4400200E0A18D8B412000A28D8B4120001D001
:101C54001200080E016E000E026E09C003F00AC0E5
:101C640004F0C0EC0CF006C001F007C002F008C09C
:101C740003F08EEC0DF000D006C001F007C002F0B6
:101C84002EEC0CF00009D8A4BAD7300E24EC0CF0DA
:101C9400120020EE60F010EE38F0210EDBCFE3FFEF
:101CA400E806FCE220EE82F010EE16F0210EDBCF07
:101CB400E3FFE806FCE2050E87EC0CF0000E096E6B
:101CC400100E086E0C0E53EC0CF0810EFAEC0BF0B7
:101CD400000E136E000E126E00D0380E076E000E4A
:101CE400086E240E096E180E0A6EFC0E0B6E170E8B
:101CF4000C6E080E0D6E180E0E6EBDEC0EF0140E6A
:101D0400046E000E056E010EA3EC0CF00009D8B4AD
:101D140029D0200E14181510D8A407D0380E076E39
:101D2400000E086E53EC0FF01DD0100E1418151091
:101D3400D8A407D0160E066E000E076EFEEC0DF04A
:101D440011D0124A132A13BE0DD0135004E1040E0D
:101D5400125CD8A007D0C69AC68A000E136E000E75
:101D6400126E00D0160E076E000E086EFDEC0CF01D
:101D7400B4D700EF00F007C001F008C002F045EC52
:101D84000CF00009D8B412008B9009500A10D8B492
:101D940015D01FD013D0110E016E000E026E010E6D
:101DA40070EC0CF00009D8B409D007C001F008C0E9
:101DB40002F011C003F08EEC0DF000D007C001F06A
:101DC40008C002F02EEC0CF00F6E050E0F60E3D786
:101DD40032D0000E1FD0110E016E000E026E010EE5
:101DE40070EC0CF00009D8B409D007C001F008C0A9
:101DF40002F011C003F08EEC0DF000D001D80AD02F
:101E04000500FA6E0950FD6E0A50FE6EF850FF6E22
:101E1400FA501200106E00D007C001F008C002F0A2
:101E24002EEC0CF00F6E040E0F6405D01050D8A4E5
:101E340002D0D1D700D08B80FE0E026E0B0E016E45
:101E440001D81DD00500FA6E0B50FD6E0C50FE6ECD
:101E5400F850FF6EFA501200110E016E000E026E61
:101E6400010E70EC0CF00009D8B409D007C001F0E1
:101E740008C002F011C003F08EEC0DF000D001D8C0
:101E84000AD00500FA6E0D50FD6E0E50FE6EF8502D
:101E9400FF6EFA5012000009D8A41200DDD7120018
:101EA400120007C001F008C002F01BEC0CF000099E
:101EB400D8B49DD007C001F008C002F065EC0DF065
:101EC40001C00AF002C00BF00C0E016E000E026E8F
:101ED4000D0E036E000E046E0A5042EC0DF0898460
:101EE40089940C5024EC0CF0096E09500E6E0F6AA4
:101EF400300E0E180F10D8B41200100E0E180F105A
:101F0400D8B41200200E0E180F10D8B412000E28E8
:101F140005E10F28D8B4120001D012000D5024ECB2
:101F24000CF0096E0950106E116A300E1018111061
:101F3400D8B41200100E10181110D8B41200200ECC
:101F440010181110D8B41200102806E11128D8B4C2
:101F5400120002D0120000D007C001F008C002F045
:101F6400C1EC0DF007C001F008C002F065EC0DF003
:101F740001C00AF002C00BF00A2805E10B28D8B40E
:101F840032D001D030D00C0E016E000E026E0D0E58
:101F9400036E000E046E0A5042EC0DF00C5024EC5B
:101FA4000CF0096E09500E6E0F6A300E0E180F10E9
:101FB400D8B41200100E0E180F10D8B41200200E50
:101FC4000E180F10D8B412000E2805E10F28D8B44B
:101FD400120001D012000D5024EC0CF0A2D7A5D7AA
:101FE400BBD71200B9D7300E24EC0CF01200898450
:0C1FF4008994300E24EC0CF01200120056
:020000040020DA
:08000000FFFFFFFFFFFFFFFF00
:020000040030CA
:0E000000FF221F1EFF8881FF03C003E00340A4
:00000001FF
