:040000004EEF00F0CF
:10000800FACF02F0FBCF03F0E9CF04F0EACF05F016
:10001800E1CF06F0E2CF07F0D9CF08F0DACF09F048
:10002800F3CF0AF0F4CF0BF0F6CF0CF0F7CF0DF0CA
:10003800F8CF0EF0F5CF0FF0F2B4F2AA0ED0D768D1
:100048003C0ED66EF294550EBEEC00F0DD0EBEEC02
:1000580000F0000EBEEC00F000D00FC0F5FF0EC09F
:10006800F8FF0DC0F7FF0CC0F6FF0BC0F4FF0AC085
:10007800F3FF09C0DAFF08C0D9FF07C0E2FF06C0D6
:10008800E1FF05C0EAFF04C0E9FF03C0FBFF02C0AF
:10009800FAFF1100C5EF00F0176E7F927F96938AE2
:1000A800939E939C948E1750D8A404D0000E196E7A
:1000B800000E03D0000E196E080E186E00D018C07E
:1000C800B8FF1450D8A404D0000E1B6E200E03D025
:1000D800000E1B6E240E1A6E00D01AC0ACFF16500C
:1000E800B06E15C0AFFF900EAB6EFF0E116E500EC6
:1000F800106E000EA8EC00F08A8C1200070E1C6E21
:100108007D0EE82EFED71C2EFCD700F0010E146ED3
:10011800000E166E810E156E010E50EC00F0D5968D
:10012800D550F80B0609D56ED59AD59CF294F28A6B
:10013800F28ED7683C0ED66ED58E000E1E6E000E5F
:100148001D6EFFD74EEF00F0136EB18ECF0EB116B5
:10015800B1921350D8B403D0126A122A01D0126A8D
:10016800B1501218FE0B1218B16E10C01FF011C05A
:1001780020F01200016E00D0ACA2FED701C0ADFF86
:0C0188001200206A1F6A000182EF00F0E4
:020000040020DA
:08000000FFFFFFFFFFFFFFFF00
:020000040030CA
:0E000000FF221F1EFF8881FF03C003E00340A4
:00000001FF
