:040000004DEF00F0D0
:10000800FACF02F0FBCF03F0E9CF04F0EACF05F016
:10001800E1CF06F0E2CF07F0D9CF08F0DACF09F048
:10002800F3CF0AF0F4CF0BF0F6CF0CF0F7CF0DF0CA
:10003800F8CF0EF0F5CF0FF0F2B4F2AA0DD0D768D2
:100048003C0ED66EF294070E016E7D0EE82EFED79A
:10005800012EFCD700F000D00FC0F5FF0EC0F8FF4E
:100068000DC0F7FF0CC0F6FF0BC0F4FF0AC0F3FF8A
:1000780009C0DAFF08C0D9FF07C0E2FF06C0E1FFE8
:1000880005C0EAFF04C0E9FF03C0FBFF02C0FAFF96
:10009800110003EF01F0010E106E000E126E040E37
:1000A800116E010EBCEC00F0000E1F6E00D0000EA9
:1000B800236E9EAA4ED0000E236EAECF22F02250A1
:1000C800F00BE00AD8A442D022500F0B216E070E85
:1000D800216038D0700E0AEC01F02ED000D09EAA14
:1000E800FED7AECF22F000D09EAAFED7AECF20F02A
:1000F8002250F00BA00AD8A419D02050F00BA00A67
:10010800D8A414D02350010D190EF324D96E000E73
:10011800F420DA6E20C018F00F0E18162238F00BF3
:100128001810DF6E600E0AEC01F004D0500E0AECD5
:1001380001F00CD0232A00D02150235CD8B006D07F
:10014800CED704D0400E0AEC01F000D023C01FF037
:1001580000D02350D8B4ABD7190E116E000E126E12
:100168001FC013F0146AE7EC00F0A1D74DEF00F0C0
:10017800136E7E9A7F96938A939E949094821350DE
:10018800D8A404D0000E156E000E03D0000E156E14
:10019800080E146E00D014C0B8FF1050D8A404D0B4
:1001A800000E176E200E03D0000E176E240E166E6A
:1001B80000D016C0ACFF1250B06E11C0AFFF900E49
:1001C800AB6E8B801200000E176E000E166E0CD0F0
:1001D80016501124D96E17501220DA6EDF500AEC2F
:1001E80001F0164A172A00D01350165C1750800ADF
:1001F800156E1450800A1558D8A0EAD71200256A3F
:10020800246A000EF86E00014FEF00F0106E00D067
:0A021800ACA2FED710C0ADFF12002B
:020000040020DA
:08000000FFFFFFFFFFFFFFFF00
:020000040030CA
:0E000000FF221F1EFF8881FF03C003E00340A4
:00000001FF
