:0400000008EF0DF008
:1019BE00016E01C0B1FF1200016E00D09EA8FED7CD
:1019CE0001C0ADFF120020EE01F00150D9260250E9
:1019DE00DA22DF5012001200016E01C0C9FF00D0E2
:1019EE00C7A0FED7C6BEC69EC950120020EE01F09B
:1019FE000150D9260250DA22DF500008200F1200C3
:101A0E00120000EE60F0440EEE6AE806FDE15A6A3E
:101A1E00000EF86E000105EF0FF020EE01F0015000
:101A2E00D9260250DA22DF50D8A402D0010E1200BD
:101A3E00000E120012000A6E7E9A7F969490948287
:101A4E0008C001F009C002F00A50D7EC0DF08B80EF
:101A5E00120000D0C7A0FED7C9CF03F05AC0C9FFED
:101A6E00C6AC02D0C69C036803C001F0026A120025
:101A7E00036E03503009016E000E96EC0DF07E944D
:101A8E007F90040E0318D8B404D0050E0318D8A402
:101A9E0004D092948994948C12009284949C8B9C82
:101AAE00F188F08812001200066E0650D8B412D0DB
:101ABE00C7A00DD030EC0DF004C0D9FF05C0DAFF81
:101ACE0001C0DEFF02C0DDFF010E120003D0000ECA
:101ADE00120000D0C7A002D0010E1200000E12009C
:101AEE0012000350F00BA00AD8A4120002D012006C
:101AFE0008D00450F00BA00AD8A4120002D0120095
:101B0E0000D004C005F00F0E05160338F00B0510BB
:101B1E0001C0D9FF02C0DAFFDF6E12001200026EA2
:101B2E00949E7F94938802C0C7FF01C0C6FFC65023
:101B3E000F0B050AD8B405D0C6500F0B040AD8A453
:101B4E000AD0938CC6500F0B040AD8A402D07F90F3
:101B5E00948CC79E1200939C12001200000E096E08
:101B6E0007C001F008C002F046EC0EF001C00AF00A
:101B7E0002C00BF00FD00A50E3EC0CF007C001F0DE
:101B8E0008C002F046EC0EF001C00AF002C00BF0E5
:101B9E00092A00D00A28EFE10B28D8A4ECD71200AE
:101BAE00076E7F9607B404D0000E046E200E03D08D
:101BBE00000E046E240E036E00D003C0ACFF900E18
:101BCE00AB6E07B604D0000E066E000E03D0000EEC
:101BDE00066E080E056E00D005C0B8FF0250B06E3E
:101BEE0001C0AFFF1200066E01C0D9FF02C0DAFFBE
:101BFE00A00EDF6E03C0D9FF04C0DAFFA00EDF6EA9
:101C0E0006C005F0053A0F0E051601C0D9FF02C039
:101C1E00DAFF0550DF1206C005F00F0E051603C0E1
:101C2E00D9FF04C0DAFF0550DF12120020EE01F0DA
:101C3E000150D9260250DA22DF50D8A403D0016811
:101C4E000268120001C0D9FF02C0DAFFDF50036E36
:101C5E000350010D020EF326000EF422F350012460
:101C6E00D96EF4500220DA6EDF50046E0450056E09
:101C7E00066A05C001F006C002F01200120020EE46
:101C8E0001F00150D9260250DA22DF50D8A403D039
:101C9E0001680268120001C0D9FF02C0DAFFDF50EE
:101CAE00036E0350010D020EF326000EF422F350C4
:101CBE000124D96EF4500220DA6EDF50046E045007
:101CCE00056E066A01C0D9FF02C0DAFFDF50036E4F
:101CDE0003281F0B01C0D9FF02C0DAFFDF6E20EE12
:101CEE0001F00150D9260250DA22DF0605C001F0BC
:101CFE0006C002F01200120020EE01F00150D926AB
:101D0E000250DA22200EDE18D8A402D0000E1200E5
:101D1E0020EE01F00150D9260250DA22DF50046E77
:101D2E0001C0D9FF02C0DAFFDF5004241F0B056E7D
:101D3E000550010D020EF326000EF422F35001247D
:101D4E00D96EF4500220DA6E03C0DFFF20EE01F0F0
:101D5E000150D9260250DA22DF2A20EE01F001507E
:101D6E00D9260250DA22200EDE18D8A402D0010E97
:101D7E001200000E120012008984899427D030ECD4
:101D8E000DF001500A6E300E0A18D8B42AD001D0C8
:101D9E0028D030EC0DF001500B6E300E0B18D8B46D
:101DAE0020D001D01ED0090E016E000E026E0AC0A8
:101DBE0003F00BC004F078EC0DF006C001F007C084
:101DCE0002F009C003F083EC0EF000D006C001F063
:101DDE0007C002F0FDEC0CF0086E060E0860CFD7BF
:101DEE0000D0300E0A18D8B41200300E0B18D8B42A
:101DFE001200300EF3EC0CF01200120020EE60F028
:101E0E0010EE38F0210EDBCFE3FFE806FCE220EE09
:101E1E0082F010EE16F0210EDBCFE3FFE806FCE2B7
:101E2E00050E3FEC0DF0000E096E2A0E086E0C0E1C
:101E3E0022EC0DF0810EDFEC0CF000D0380E016EAE
:101E4E00000E026E14EC0DF00009D8B415D0000E81
:101E5E00136E000E126E03D0124A132A00D0380EE3
:101E6E00016E000E026E12C003F083EC0EF000093C
:101E7E00D8A402D0F1D700D0140E046E000E056E59
:101E8E00010E5BEC0DF00009D8B421D01450E3EC38
:101E9E000CF0200E14181510D8A40AD0380E076EA8
:101EAE00000E086E77EC0FF0530EE3EC0CF00FD033
:101EBE00100E14181510D8A40AD0160E066E000EA9
:101ECE00076EC3EC0EF0520EE3EC0CF000D0160EC3
:101EDE00076E000E086EB5EC0DF0B0D700EF00F0F7
:101EEE0007C001F008C002F0EAEC0CF00009D8B40B
:101EFE00120007C001F008C002F01DEC0EF001C088
:101F0E000AF002C00BF0100E016E000E026E110EE2
:101F1E00036E000E046E0A50FAEC0DF0898489945B
:101F2E001050F3EC0CF0096E09500C6E0D6A115046
:101F3E00F3EC0CF0096E09500E6E0F6A3FD007C01D
:101F4E0001F008C002F046EC0EF007C001F008C028
:101F5E0002F01DEC0EF001C00AF002C00BF00A28D0
:101F6E0005E10B28D8B436D001D034D0100E016E56
:101F7E00000E026E110E036E000E046E0A50FAEC85
:101F8E000DF01050F3EC0CF0096E09500C6E0D6A4A
:101F9E00300E0C180D10D8B41DD001D01BD011501E
:101FAE00F3EC0CF0096E09500E6E0F6A300E0E181F
:101FBE000F10D8B40FD002D00DD000D0300E0C18A8
:101FCE000D10D8B407D0300E0E180F10D8B402D0A2
:101FDE00B6D700D0300E0C180D10D8B41200300E3B
:101FEE000E180F10D8B41200300EF3EC0CF01200D5
:021FFE001200CF
:020000040020DA
:08000000FFFFFFFFFFFFFFFF00
:020000040030CA
:0E000000FF221F1FFF8881FF03C003E00340A3
:00000001FF
