:040000004EEF00F0CF
:10000800FACF02F0FBCF03F0E9CF04F0EACF05F016
:10001800E1CF06F0E2CF07F0D9CF08F0DACF09F048
:10002800F3CF0AF0F4CF0BF0F6CF0CF0F7CF0DF0CA
:10003800F8CF0EF0F5CF0FF0F2B4F2AA0ED0D768D1
:100048003C0ED66EF294550E0EEC02F0DD0E0EEC60
:1000580002F0000E0EEC02F000D00FC0F5FF0EC04B
:10006800F8FF0DC0F7FF0CC0F6FF0BC0F4FF0AC085
:10007800F3FF09C0DAFF08C0D9FF07C0E2FF06C0D6
:10008800E1FF05C0EAFF04C0E9FF03C0FBFF02C0AF
:10009800FAFF110007EF02F0070E1C6E7D0EE82E26
:1000A800FED71C2EFCD700F0010E146E000E166E43
:1000B800810E156E010EAAEC01F0FE0E106E000EF8
:1000C800116E060E126E000E5DEC01F0000E116E40
:1000D800000E106EF2EC01F0000E1F6E000E1E6E88
:1000E80000D0200E106E000E116EAEEC00F010C0A5
:1000F8001EF011C01FF01E501F10D8B4F2D7AA0E60
:100108002018D8A406D0010E106E21500CEC01F076
:10011800E8D7AB0E2018D8A406D0000E106E2150D8
:100128000CEC01F0DED7AC0E2018D8A4DAD7225098
:1001380021C01CF01D6AD8901C361D36D8901C367C
:100148001D361C10106E1D50116EF2EC01F0C9D74F
:100158004EEF00F0000E176E000E166E000E156EB4
:10016800000E146EABA202D0AB98AB88AECF13F0E2
:10017800AECF13F082BE36D08A9C00D09EAAFED79E
:10018800AECF14F0156A15BE06D0155025E1100E35
:10019800145CD8B021D015BE1FD0155013E114043B
:1001A800D8B010D019D00ED000D09EAAFED71650C5
:1001B8001024D96E17501120DA6EAECFDFFF164A21
:1001C800172A00D01450165C1750800A126E15506A
:1001D800800A1258D8A0E9D78A8C00D082BE02D0F3
:1001E800FDD700D020EE10F01050D9261150DA2299
:1001F80016C0DFFF16501024D96E17501120DA6E82
:10020800000EDF6E16C010F017C011F012001200B9
:10021800126E3DD0F00EB96E12001050D8B403D053
:10022800116A112A01D0116AB9501118FE0B111860
:10023800B96E12001050D8B403D0116A112A01D037
:10024800116A1146B9501118FD0B1118B96E120038
:100258001050D8B403D0116A112A01D0116A11467E
:100268001146B9501118FB0B1118B96E1200105035
:10027800D8B403D0116A112A01D0116A1146114667
:100288001146B9501118F70B1118B96E1200125017
:10029800000AD8B4BFD7010AD8B4BFD7030AD8B464
:1002A800C9D7060AD8B4D4D70C0AD8A41200DFD705
:1002B8001200136ECA8409D0FC0ECA1611D000D0E1
:1002C800CA50FC0B0109CA6E0BD01150000AD8B4F1
:1002D800F3D7010AD8B4F4D7030AD8B4F1D700D0B9
:1002E8003F0EBD1612D0BD50F00B0C0907D0BD5003
:1002F800F00B0D0903D0BD50F00B0E09BD6E12D0E6
:10030800BD80BD82BD84BD860DD01350000AD8B40F
:10031800EAD7010AD8B4EBD7030AD8B4ECD7010A54
:10032800D8B4EED7B98812A002D08B9A949A12A2A8
:1003380002D08B98949812A402D08B96949612A609
:1003480002D08B94949410C0CBFF1200176E7F924A
:100358007F96938A939E939C948E1750D8A404D02A
:10036800000E196E000E03D0000E196E080E186EDE
:1003780000D018C0B8FF1450D8A404D0000E1B6ECB
:10038800200E03D0000E1B6E240E1A6E00D01AC069
:10039800ACFF1650B06E15C0AFFF900EAB6EFF0EDF
:1003A800116E500E106E000EDCEC01F08A8C1200FB
:1003B800136EB18ECF0EB116B1921350D8B403D0CC
:1003C800126A122A01D0126AB1501218FE0B1218C2
:1003D800B16E10C031F011C032F0120010C012F02E
:1003E800123ABD501218CF0B1218BD6E10C012F081
:1003F80011C013F0D89013321232D890133212323F
:100408001250BE6E1200326A316A000EF86E000198
:1004180050EF00F0016E00D0ACA2FED701C0ADFFD6
:020428001200C0
:020000040020DA
:08000000FFFFFFFFFFFFFFFF00
:020000040030CA
:0E000000FF221F1EFF8881FF03C003E00340A4
:00000001FF
