:0400000071EF0DF09F
:101A3400555555555500016E01C0B1FF1200016E98
:101A440000D09EA8FED701C0ADFF120020EE01F029
:101A54000150D9260250DA22DF5012001200016E22
:101A640001C0C9FF00D0C7A0FED7C6BEC69EC950DC
:101A7400120020EE01F00150D9260250DA22DF5084
:101A84000008200F1200120020EE01F00150D926A8
:101A94000250DA22DF50D8A402D0010E1200000E48
:101AA400120012000A6E7E9A7F969490948208C067
:101AB40001F009C002F00A5024EC0EF08B801200F1
:101AC40000D0C7A0FED7C9CF03F0A4C0C9FFC6ACDD
:101AD40002D0C69C036803C001F0026A120000EE43
:101AE40060F0450EEE6AE806FDE1340EF66E1A0E5D
:101AF400F76E000EF86E00EEA5F010EE06F0090089
:101B0400F5CFEEFFE550E150FAE1000EF86E00016A
:101B140077EF0FF0036E03503009016E000EE3EC13
:101B24000DF07E947F90040E0318D8B404D0050EF3
:101B34000318D8A404D092948994948C12009284AB
:101B4400949C8B9CF188F08812001200066E06505B
:101B5400D8B412D0C7A00DD062EC0DF004C0D9FFE8
:101B640005C0DAFF01C0DEFF02C0DDFF010E120076
:101B740003D0000E120000D0C7A002D0010E120044
:101B8400000E120012000350F00BA00AD8A4120099
:101B940002D0120008D00450F00BA00AD8A41200FE
:101BA40002D0120000D004C005F00F0E0516033851
:101BB400F00B051001C0D9FF02C0DAFFDF6E12007E
:101BC4001200026E949E7F94938802C0C7FF01C0E6
:101BD400C6FFC6500F0B050AD8B405D0C6500F0B6C
:101BE400040AD8A40AD0938CC6500F0B040AD8A4B4
:101BF40002D07F90948CC79E1200939C1200120016
:101C0400000E096E07C001F008C002F091EC0EF05E
:101C140001C00AF002C00BF00FD00A5021EC0DF005
:101C240007C001F008C002F091EC0EF001C00AF008
:101C340002C00BF0092A00D00A28EFE10B28D8A42F
:101C4400ECD71200076E7F9607B404D0000E046E22
:101C5400200E03D0000E046E240E036E00D003C0C9
:101C6400ACFF900EAB6E07B604D0000E066E000EED
:101C740003D0000E066E080E056E00D005C0B8FF36
:101C84000250B06E01C0AFFF1200066E01C0D9FF52
:101C940002C0DAFFA00EDF6E03C0D9FF04C0DAFF72
:101CA400A00EDF6E06C005F0053A0F0E051601C042
:101CB400D9FF02C0DAFF0550DF1206C005F00F0E8F
:101CC400051603C0D9FF04C0DAFF0550DF12120065
:101CD40020EE01F00150D9260250DA22DF50046EC2
:101CE40001C0D9FF02C0DAFFDF5004241F0B056EC8
:101CF4000550010D020EF326000EF422F3500124C8
:101D0400D96EF4500220DA6E03C0DFFF20EE01F03A
:101D14000150D9260250DA22DF2A1200120020EEE6
:101D240001F00150D9260250DA22DF50D8A403D0A2
:101D340001680268120001C0D9FF02C0DAFFDF5057
:101D4400036E0350010D020EF326000EF422F3502D
:101D54000124D96EF4500220DA6EDF50046E045070
:101D6400056E066A01C0D9FF02C0DAFFDF50036EB8
:101D740003281F0B01C0D9FF02C0DAFFDF6E20EE7B
:101D840001F00150D9260250DA22DF0605C001F025
:101D940006C002F0120012008984899427D062ECF4
:101DA4000DF001500E6E300E0E18D8B42AD001D0AA
:101DB40028D062EC0DF001500F6E300E0F18D8B41D
:101DC40020D001D01ED00D0E016E000E026E0EC08A
:101DD40003F00FC004F0C5EC0DF006C001F007C01D
:101DE40002F00DC003F06AEC0EF000D006C001F062
:101DF40007C002F03BEC0DF00C6E060E0C60CFD762
:101E040000D0300E0E18D8B41200300E0F18D8B40B
:101E14001200300E31EC0DF01200120007C001F078
:101E240008C002F028EC0DF00009D8B4120007C075
:101E340001F008C002F091EC0EF001C00EF002C0F7
:101E44000FF0100E016E000E026E110E036E000EE6
:101E5400046E0E5047EC0EF089848994105031ECD6
:101E64000DF0096E09500A6E0B6A115031EC0DF039
:101E740026D007C001F008C002F091EC0EF001C0BA
:101E84000EF002C00FF00E2805E10F28D8B428D0B8
:101E940001D026D0100E016E000E026E110E036EDC
:101EA400000E046E0E5047EC0EF0105031EC0DF0A5
:101EB400096E09500A6E0B6A115031EC0DF0096E6F
:101EC40009500C6E0D6A00D0300E0A180B10D8B4ED
:101ED40007D0300E0C180D10D8B402D0CAD700D0D9
:101EE400300E31EC0DF01200120020EE60F010EE16
:101EF4001CF0210EDBCFE3FFE806FCE220EE82F0CB
:101F040010EE3EF0210EDBCFE3FFE806FCE2050E07
:101F14008CEC0DF0000E096E2A0E086E0C0E54ECBB
:101F24000DF0810E1DEC0DF020EEA5F010EE12F078
:101F3400050EDBCFE3FFE806FCE200D03E0E016EA7
:101F4400000E026E46EC0DF00009D8B421D0000E4C
:101F5400196E000E186E11D03E0E016E000E026E48
:101F6400120E1824D96E000E1920DA6EDF50036E9B
:101F74006AEC0EF0184A192A00D0120E1824D96EF1
:101F8400000E1920DA6EDF50D8B402D0E5D700D0A5
:101F94001A0E046E000E056E010EA8EC0DF0000979
:101FA400D8B423D01A5021EC0DF0200E1A181B10AF
:101FB400D8A407D03E0E076E000E086E10EC0FF08A
:101FC40014D0100E1A181B10D8A40FD01C0E066EB5
:101FD400000E076E000E086E000E096E000E0A6EEB
:101FE400000E0B6ECEEC0EF000D01C0E076E000E31
:0C1FF400086E02EC0EF0A2D700EF00F027
:020000040020DA
:08000000FFFFFFFFFFFFFFFF00
:020000040030CA
:0E000000FF221F1FFF8881FF03C003E00340A3
:00000001FF
