:0400000047EF00F0D6
:10000800FACF32F0FBCF33F0E9CF34F0EACF35F056
:10001800E1CF36F0E2CF37F0D9CF38F0DACF39F088
:10002800F3CF3AF0F4CF3BF0F6CF3CF0F7CF3DF00A
:10003800F8CF3EF0F5CF3FF09EBA9DAA07D0070E45
:100048002E6E000E2F6E2BEC01F000D03FC0F5FF96
:100058003EC0F8FF3DC0F7FF3CC0F6FF3BC0F4FFD1
:100068003AC0F3FF39C0DAFF38C0D9FF37C0E2FF22
:1000780036C0E1FF35C0EAFF34C0E9FF33C0FBFFFB
:1000880032C0FAFF110087EF01F020EE01F0405076
:10009800D9264150DA22DF50D8A403D040684168FD
:1000A800120040C0D9FF41C0DAFFDF50426E425013
:1000B800010D020EF326000EF422F3504024D96EEF
:1000C800F4504120DA6EDF50436E4350446E456A67
:1000D80040C0D9FF41C0DAFFDF50426E42281F0BF3
:1000E80040C0D9FF41C0DAFFDF6E20EE01F040507A
:1000F800D9264150DA22DF0644C040F045C041F01D
:100108001200120020EE01F02950D9262A50DA22D6
:10011800200EDE18D8B4120001D0120020EE01F033
:100128002950D9262A50DA22DF502C6E29C0D9FF4F
:100138002AC0DAFFDF502C241F0B2D6E2D50010D25
:10014800020EF326000EF422F3502924D96EF4503F
:100158002A20DA6E2BC0DFFF20EE01F02950D926C5
:100168002A50DA22DF2A12001200000E0001606F06
:1001780046C040F047C041F049EC00F040C061F093
:1001880041C062F011D00001615199EC01F046C004
:1001980040F047C041F049EC00F040C061F041C078
:1001A80062F00001602B00D000016129ECE1000140
:1001B8006229D8A4E8D746C040F047C041F06EECA9
:1001C80001F00009D8B412008B9012001200466E9C
:1001D8007F9646B404D0000E436E200E03D0000E66
:1001E800436E240E426E00D042C0ACFF900EAB6E40
:1001F80046B604D0000E456E000E03D0000E456EC4
:10020800080E446E00D044C0B8FF4150B06E40C0E4
:10021800AFFF1200000E486E130E476E0C0E5BEC1B
:1002280001F000D0070E406E000E416E90EC01F018
:100238000001636F1C0E00016365F4D7070E466E5C
:10024800000E476EB9EC00F0EDD747EF00F02EC076
:1002580029F02FC02AF07CEC01F0306E060E3060D9
:1002680002D08B8002D08B9000D0A0EC01F0316ED0
:100278002EC029F02FC02AF031C02BF086EC00F0F8
:100288001200416E41C040F0030E4016D8B412006F
:10029800C00EF21241A002D09D8A01D09D9A41A2BF
:1002A80002D0010E01D0000E016E120012000001F2
:1002B800606F7E9A7F969490948247C040F048C0C1
:1002C80041F000016051EBEC00F0010E45EC01F04B
:1002D8008B90120020EE01F04050D9264150DA22CE
:1002E800DF50D8A402D0010E1200000E1200120036
:1002F80020EE01F02950D9262A50DA22DF500008D2
:10030800200F1200120000EE01F0280EEE6AE80637
:10031800FDE100010EEF01F020EE01F04050D9267A
:100328004150DA22DF5012001200406E00D09EA821
:10033800FED740C0ADFF120000D09EAAFED7AE5037
:04034800120012008D
:020000040020DA
:08000000FFFFFFFFFFFFFFFF00
:020000040030CA
:0E000000FF221F1FFF8881FF03C003E00340A3
:00000001FF
