:0400000054EF0CF0BD
:10182A00016E01C0B1FF1200A19201C0B2FF02C055
:10183A00B3FF1200A1A202D0010E1200000E120084
:10184A001200016E00D09EA8FED701C0ADFF1200A3
:10185A00000E046E000E056E000EBEEC0CF01200B7
:10186A00120020EE01F00150D9260250DA22DF5090
:10187A0012001200016E01C0C9FF00D0C7A0FED736
:10188A00C6BEC69EC950120020EE01F00150D926EC
:10189A000250DA22DF500008200F1200120000EE78
:1018AA0060F0440EEE6AE806FDE1586A000EF86E32
:1018BA00000166EF0EF020EE01F00150D926025029
:1018CA00DA22DF50D8A402D0010E1200000E120054
:1018DA0012000A6E7E9A7F969490948208C001F054
:1018EA0009C002F00A503AEC0DF08B80120000D0C9
:1018FA00C7A0FED7C9CF03F058C0C9FFC6AC02D0F3
:10190A00C69C036803C001F0026A1200036E03500A
:10191A00D8B40ED09EAA09D001C0D9FF02C0DAFFFE
:10192A00AECFDFFF010E120003D0000E120000D06E
:10193A00000E9EBA010E12001200036E0350300907
:10194A00016E000EF9EC0CF07E947F90040E0318E1
:10195A00D8B404D0050E0318D8A404D0929489945C
:10196A00948C12009284949C8B9CF188F0881200CB
:10197A001200066E0650D8B412D0C7A00DD07CEC67
:10198A000CF004C0D9FF05C0DAFF01C0DEFF02C0B7
:10199A00DDFF010E120003D0000E120000D0C7A016
:1019AA0002D0010E1200000E120012000350F00BBA
:1019BA00A00AD8A4120002D0120008D00450F00BDA
:1019CA00A00AD8A4120002D0120000D004C005F068
:1019DA000F0E05160338F00B051001C0D9FF02C01F
:1019EA00DAFFDF6E12001200026E949E7F949388D3
:1019FA0002C0C7FF01C0C6FFC6500F0B050AD8B404
:101A0A0005D0C6500F0B040AD8A40AD0938CC6502E
:101A1A000F0B040AD8A402D07F90948CC79E1200A0
:101A2A00939C12001200000E096E07C001F008C054
:101A3A0002F0DCEC0DF001C00AF002C00BF00FD08E
:101A4A000A5026EC0CF007C001F008C002F0DCECEA
:101A5A000DF001C00AF002C00BF0092A00D00A28D2
:101A6A00EFE10B28D8A4ECD71200076E7F9607B4D3
:101A7A0004D0000E046E200E03D0000E046E240E55
:101A8A00036E00D003C0ACFF900EAB6E07B604D055
:101A9A00000E066E000E03D0000E066E080E056ECE
:101AAA0000D005C0B8FF0250B06E01C0AFFF1200EF
:101ABA00066E01C0D9FF02C0DAFFA00EDF6E03C0B6
:101ACA00D9FF04C0DAFFA00EDF6E06C005F0053AA2
:101ADA000F0E051601C0D9FF02C0DAFF0550DF124A
:101AEA0006C005F00F0E051603C0D9FF04C0DAFFC1
:101AFA000550DF12120020EE01F00150D9260250E3
:101B0A00DA22DF50D8A403D001680268120001C0AB
:101B1A00D9FF02C0DAFFDF50036E0350010D020E37
:101B2A00F326000EF422F3500124D96EF450022059
:101B3A00DA6EDF50046E0450056E066A05C001F0C5
:101B4A0006C002F01200120020EE01F00150D92660
:101B5A000250DA22200EDE18D8B4120001D0120088
:101B6A0020EE01F00150D9260250DA22DF50046E2D
:101B7A0001C0D9FF02C0DAFFDF5004241F0B056E33
:101B8A000550010D020EF326000EF422F350012433
:101B9A00D96EF4500220DA6E03C0DFFF20EE01F0A6
:101BAA000150D9260250DA22DF2A1200120020EE52
:101BBA0001F00150D9260250DA22DF50D8A403D00E
:101BCA0001680268120001C0D9FF02C0DAFFDF50C3
:101BDA00036E0350010D020EF326000EF422F35099
:101BEA000124D96EF4500220DA6EDF50046E0450DC
:101BFA00056E066A01C0D9FF02C0DAFFDF50036E24
:101C0A0003281F0B01C0D9FF02C0DAFFDF6E20EEE6
:101C1A0001F00150D9260250DA22DF0605C001F090
:101C2A0006C002F012001200898489943DD07CEC2F
:101C3A000CF00150096E300E0918D8B41200100EBB
:101C4A000918D8B41200200E0918D8B412000928AD
:101C5A00D8B4120001D012007CEC0CF001500A6ECC
:101C6A00300E0A18D8B41200100E0A18D8B412008E
:101C7A00200E0A18D8B412000A28D8B4120001D0CB
:101C8A001200080E016E000E026E09C003F00AC0AF
:101C9A0004F0DBEC0CF006C001F007C002F008C04B
:101CAA0003F0A9EC0DF000D006C001F007C002F065
:101CBA0049EC0CF00009D8A4BAD7300E3FEC0CF06E
:101CCA00120020EE60F010EE36F0210EDBCFE3FFBB
:101CDA00E806FCE220EE82F010EE14F0210EDBCFD3
:101CEA00E3FFE806FCE2050EA2EC0CF0000E096E1A
:101CFA00100E086E0C0E6EEC0CF0810E15EC0CF04A
:101D0A0000D0360E076E000E086E5A0E096E180EB7
:101D1A000A6E320E0B6E180E0C6E3E0E0D6E180EFB
:101D2A000E6EC3EC0EF0120E046E000E056E010E5E
:101D3A00BEEC0CF00009D8B418D0200E12181310FB
:101D4A00D8A407D0360E076E000E086E59EC0FF0B5
:101D5A000CD0100E12181310D8A407D0140E066E49
:101D6A00000E076E19EC0EF000D0140E076E000E6E
:101D7A00086E18EC0DF0C5D700EF00F007C001F0AF
:101D8A0008C002F060EC0CF00009D8B412008B9085
:101D9A0009500A10D8B415D01FD013D0110E016EF5
:101DAA00000E026E010E8BEC0CF00009D8B409D0BB
:101DBA0007C001F008C002F011C003F0A9EC0DF051
:101DCA0000D007C001F008C002F049EC0CF00F6E19
:101DDA00050E0F60E3D732D0000E1FD0110E016E30
:101DEA00000E026E010E8BEC0CF00009D8B409D07B
:101DFA0007C001F008C002F011C003F0A9EC0DF011
:101E0A0000D001D80AD00500FA6E0950FD6E0A50BA
:101E1A00FE6EF850FF6EFA501200106E00D007C026
:101E2A0001F008C002F049EC0CF00F6E040E0F64CA
:101E3A0005D01050D8A402D0D1D700D08B80FE0E86
:101E4A00026E0B0E016E01D81DD00500FA6E0B5002
:101E5A00FD6E0C50FE6EF850FF6EFA501200110E15
:101E6A00016E000E026E010E8BEC0CF00009D8B464
:101E7A0009D007C001F008C002F011C003F0A9ECB4
:101E8A000DF000D001D80AD00500FA6E0D50FD6E93
:101E9A000E50FE6EF850FF6EFA5012000009D8A4D8
:101EAA001200DDD71200120007C001F008C002F0CC
:101EBA0036EC0CF00009D8B4120007C001F008C0D3
:101ECA0002F080EC0DF001C00AF002C00BF00C0E1B
:101EDA00016E000E026E0D0E036E000E046E0A50A5
:101EEA005DEC0DF0898489940C503FEC0CF0096E7E
:101EFA0009500E6E0F6A300E0E180F10D8B4120069
:101F0A00100E0E180F10D8B41200200E0E180F1053
:101F1A00D8B412000E2805E10F28D8B4120001D057
:101F2A0012000D503FEC0CF0096E0950106E116A48
:101F3A00300E10181110D8B41200100E101811100B
:101F4A00D8B41200200E10181110D8B4120010289C
:101F5A0006E11128D8B4120002D0120000D007C03E
:101F6A0001F008C002F0DCEC0DF007C001F008C077
:101F7A0002F080EC0DF001C00AF002C00BF00A2852
:101F8A0005E10B28D8B432D001D030D00C0E016E46
:101F9A00000E026E0D0E036E000E046E0A505DEC0A
:101FAA000DF00C503FEC0CF0096E09500E6E0F6AE2
:101FBA00300E0E180F10D8B41200100E0E180F1093
:101FCA00D8B41200200E0E180F10D8B412000E2822
:101FDA0005E10F28D8B4120001D012000D503FECD1
:101FEA000CF0A2D7A5D7BBD71200B9D7300E3FEC59
:061FFA000CF012001200C1
:020000040020DA
:08000000FFFFFFFFFFFFFFFF00
:020000040030CA
:0E000000FF221F1FFF8881FF03C003E00340A3
:00000001FF
