:0400000028EF0EF0E7
:101C4200016E00D0ACA2FED701C0ADFF1200196A2E
:101C5200186A000EF86E00011BEF0FF0D596D550F2
:101C6200F80B0609D56ED59AD59CF2940250D76E20
:101C720001C0D6FFD58E120001C003F0033ABD5059
:101C82000318CF0B0318BD6E01C003F002C004F0AD
:101C9200D89004320332D890043203320350BE6E1D
:101CA2001200046E7E9A7F96938A939E94909482F9
:101CB2000450D8A404D0000E066E000E03D0000E0D
:101CC200066E080E056E00D005C0B8FF0150D8A4FC
:101CD20004D0000E086E200E03D0000E086E240EF3
:101CE200076E00D007C0ACFF0350B06E02C0AFFF5A
:101CF200900EAB6E8B801200046ECA8409D0FC0E6B
:101D0200CA1611D000D0CA50FC0B0109CA6E0BD002
:101D12000250000AD8B4F3D7010AD8B4F4D7030AA0
:101D2200D8B4F1D700D03F0EBD1612D0BD50F00B83
:101D32000C0907D0BD50F00B0D0903D0BD50F00BBC
:101D42000E09BD6E12D0BD80BD82BD84BD860DD090
:101D52000450000AD8B4EAD7010AD8B4EBD7030A70
:101D6200D8B4ECD7010AD8B4EED7B98803A002D010
:101D72008B9A949A03A202D08B98949803A402D0CF
:101D82008B96949603A602D08B94949401C0CBFFB9
:101D92001200036E3DD0F00EB96E12000150D8B49D
:101DA20003D0026A022A01D0026AB9500218FE0B5D
:101DB2000218B96E12000150D8B403D0026A022A86
:101DC20001D0026A0246B9500218FD0B0218B96E20
:101DD20012000150D8B403D0026A022A01D0026A6A
:101DE20002460246B9500218FB0B0218B96E1200E5
:101DF2000150D8B403D0026A022A01D0026A024614
:101E020002460246B9500218F70B0218B96E1200C8
:101E12000350000AD8B4BFD7010AD8B4BFD7030A07
:101E2200D8B4C9D7060AD8B4D4D70C0AD8A4120099
:101E3200DFD71200070E0B6E7D0EE82EFED70B2E9B
:101E4200FCD700F0FF0E026E3C0E016E2FEC0EF07E
:101E5200010E016E000E036E810E026E010E52EC37
:101E62000EF0FE0E016E000E026E060E036E000EE6
:101E72007DEC0EF0000E026E000E016E3DEC0EF0D7
:101E8200000E0F6E000E0E6E000E0D6E00D0100EC4
:101E9200026E000E036E81EC0FF002C00EF003C062
:101EA2000FF00E500F10D8B4F2D7AA0E1018D8A403
:101EB20006D0010E016E1150CAEC0EF0E8D7AB0E3F
:101EC2001018D8A406D0000E016E1150CAEC0EF004
:101ED200DED7AC0E1018D8A4DAD7125011C00BF00E
:101EE2000C6AD8900B360C36D8900B360C360B1089
:101EF200016E0C50026E3DEC0EF0C9D700EF00F0FF
:101F0200000E0A6E000E096E000E066E000E056EC1
:101F1200ABA206D0AB98AB88AECF08F0AECF08F03C
:101F22009EAA57D0AECF08F00850F00BE00AD8A412
:101F320050D008C004F00F0E04160450056E066A55
:101F420006BE06D0065041E1070E055CD8B03DD072
:101F5200700E21EC0EF02DD000D09EAAFED7AECF8F
:101F620008F000D09EAAFED7AECF07F00850F00BC3
:101F7200A00AD8A417D00750F00BA00AD8A412D0F8
:101F820009500224D96E0A500320DA6E07C004F009
:101F92000F0E04160838F00B0410DF6E600E21ECF1
:101FA2000EF004D0500E21EC0EF013D0094A0A2A8A
:101FB20000D00550095C0A50800A046E0650800A5F
:101FC2000458D8B006D0C9D704D0400E21EC0EF088
:101FD20000D020EE07F00250D9260350DA2209C0C1
:101FE200DFFF09500224D96E0A500320DA6E000E78
:0E1FF200DF6E09C002F00AC003F012001200F8
:020000040020DA
:08000000FFFFFFFFFFFFFFFF00
:020000040030CA
:0E000000FF221F1EFF8881FF03C003E00340A4
:00000001FF
