:040000004AEF0CF0C7
:1016130055DD00016E01C0D5FF1200016E01C0B19E
:10162300FF120001030206040C0809060EE82EFE51
:10163300D700D01200A19201C0B2FF02C0B3FF12C3
:1016430000F29401C0D6FF02C0D7FF1200A1A2028C
:10165300D0010E1200000E12001200F2A402D001FB
:101663000E1200000E1200120020EE01F00150D9FC
:10167300260250DA22DF50120012008B908B928BDD
:10168300948B9694909492949494961200016E0184
:10169300C0C9FF00D0C7A0FED7C6BEC69EC95012A0
:1016A3000020EE01F00150D9260250DA22DF50006B
:1016B30008200F1200120020EE01F00150D926027B
:1016C30050DA22200EDE18D8A402D0010E12000038
:1016D3000E120012001E06070E1E161E50010D16D6
:1016E3000EF324D96E000EF420DA6EDF50016E8BF8
:1016F30050F00B01108B6E12001E2A070E1E161ED1
:1017030050010D160EF324D96E000EF420DA6EDFAD
:1017130050016E8B50F00B01108B6E120001C00351
:10172300F0033ABD500318CF0B0318BD6E01C0037D
:10173300F002C004F0D89004320332D8900432038C
:10174300320350BE6E1200036E03503009016E0067
:101753000EDFEC0BF07E947F90040E0318D8B404D4
:10176300D0050E0318D8A404D092948994948C12B3
:10177300009284949C8B9CF188F0881200120003E1
:1017830050F00BA00AD8A4120002D0120008D00413
:1017930050F00BA00AD8A4120002D0120000D0040B
:1017A300C005F00F0E05160338F00B051001C0D964
:1017B300FF02C0DAFFDF6E12001200026E949E7FFA
:1017C30094938802C0C7FF01C0C6FFC6500F0B0524
:1017D3000AD8B405D0C6500F0B040AD8A40AD09374
:1017E3008CC6500F0B040AD8A402D07F90948CC7E8
:1017F3009E1200939C12001200066E01C0D9FF02D4
:10180300C0DAFFA00EDF6E03C0D9FF04C0DAFFA069
:101813000EDF6E06C005F0053A0F0E051601C0D99E
:10182300FF02C0DAFF0550DF1206C005F00F0E05F8
:101833001603C0D9FF04C0DAFF0550DF12120020DF
:10184300EE01F00150D9260250DA22DF50D8A4036A
:10185300D001680268120001C0D9FF02C0DAFFDFBD
:1018630050036E0350010D020EF326000EF422F313
:10187300500124D96EF4500220DA6EDF50046E0456
:1018830050056E066A05C001F006C002F012001290
:101893000000EEAFF0440EEE6AE806FDE11F6A1E9B
:1018A3006A130EF66E160EF76E000EF86E0900F54B
:1018B300CFF3F00900F5CFF4F00900F5CFF5F026EA
:1018C3000EF66E160EF76E000EF86E00EE16F010A2
:1018D300EE08F00900F5CFEEFFE550E150FAE10024
:1018E3000EF86E0001CDEF0EF0076ED40E026E3FC0
:1018F3000E016E01D82DD00500FA6E0350FD6E0463
:1019030050FE6EF850FF6EFA50120001D80AD0054F
:1019130000FA6E0550FD6E0650FE6EF850FF6EFA2B
:101923005012000009D8B414D0075048EC0BF0D47F
:101933000E026E3F0E016E01D80BD00500FA6E0346
:1019430050FD6E0450FE6EF850FF6EFA5012000008
:10195300D0F0A2DBD7F092120020EE01F00150D9B3
:10196300260250DA22DF50D8A403D001680268129D
:101973000001C0D9FF02C0DAFFDF50036E0350013C
:101983000D020EF326000EF422F3500124D96EF457
:10199300500220DA6EDF50046E0450056E066A01B1
:1019A300C0D9FF02C0DAFFDF50036E03281F0B010B
:1019B300C0D9FF02C0DAFFDF6E20EE01F00150D97B
:1019C300260250DA22DF0605C001F006C002F0123B
:1019D30000120020EE01F00150D9260250DA222035
:1019E3000EDE18D8A402D0000E120020EE01F00182
:1019F30050D9260250DA22DF50046E01C0D9FF020B
:101A0300C0DAFFDF5004241F0B056E0550010D02E1
:101A13000EF326000EF422F3500124D96EF4500283
:101A230020DA6E03C0DFFF20EE01F00150D9260259
:101A330050DA22DF2A20EE01F00150D9260250DAD3
:101A430022200EDE18D8A402D0010E1200000E12BE
:101A53000012000BAE26D0000E0E6E000E0D6E1699
:101A6300D006C001F007C002F00D500824D96E0E55
:101A7300500920DA6EDF50036EEBEC0CF00009D84E
:101A8300A4120001D012000D4A0E2A00D00D5008F6
:101A930024D96E0E500920DA6EDF50D8B41200E05C
:101AA300D71200000E0E6E000E0D6E16D006C0018A
:101AB300F007C002F00D500824D96E0E500920DA49
:101AC3006EDF50036EEBEC0CF00009D8A41200019A
:101AD300D012000D4A0E2A00D00A500D5C0E508021
:101AE3000A0C6E0B50800A0C58D8B01200DFD712C4
:101AF300001200036E3DD0F00EB96E12000150D8F3
:101B0300B403D0026A022A01D0026AB9500218FE55
:101B13000B0218B96E12000150D8B403D0026A0246
:101B23002A01D0026A0246B9500218FD0B0218B905
:101B33006E12000150D8B403D0026A022A01D00207
:101B43006A02460246B9500218FB0B0218B96E121C
:101B5300000150D8B403D0026A022A01D0026A02FB
:101B63004602460246B9500218F70B0218B96E1224
:101B7300000350000AD8B4BFD7010AD8B4BFD703B3
:101B83000AD8B4C9D7060AD8B4D4D70C0AD8A41231
:101B930000DFD7120008C001F009C002F05DEC0BB2
:101BA300F00009D8A41200200E48EC0BF00AC00381
:101BB300F00BC004F00CC005F00DC006F0200E764B
:101BC300EC0CF02BD0E00E48EC0BF00E6E17EC0B88
:101BD300F0300E0E18D8B4120001D01200E00E48F7
:101BE300EC0BF00F6E17EC0BF0300E0F18D8B4128D
:101BF3000001D01200100E016E000E026E0EC00323
:101C0300F00FC004F0C1EC0BF008C001F009C002F2
:101C1300F010C003F0EBEC0CF000D008C001F009A9
:101C2300C002F052EC0BF00009D8A4CCD7300E4818
:101C3300EC0BF017EC0BF012001200086ECA8409CB
:101C4300D0FC0ECA1611D000D0CA50FC0B0109CA31
:101C53006E0BD00650000AD8B4F3D7010AD8B4F4F7
:101C6300D7030AD8B4F1D700D03F0EBD1612D0BDAA
:101C730050F00B0C0907D0BD50F00B0D0903D0BD7C
:101C830050F00B0E09BD6E12D0BD80BD82BD84BD68
:101C9300860DD00850000AD8B4EAD7010AD8B4EBAD
:101CA300D7030AD8B4ECD7010AD8B4EED7B988075A
:101CB300A002D08B9A949A07A202D08B989498078B
:101CC300A402D08B96949607A603D08B9494940089
:101CD300D0000E026E000E016E90EC0BF005C0CB2F
:101CE300FF120008C001F009C002F036EC0BF0004F
:101CF30009D8B41200100E48EC0BF00AC003F00B25
:101D0300C004F00CC005F00DC006F0100E76EC0C0C
:101D1300F000D008C001F009C002F021EC0CF00182
:101D2300C010F002C011F0102805E11128D8B42C1E
:101D3300D001D02AD0120E016E000E026E130E03D4
:101D43006E000E046E1050FEEC0BF0125048EC0BBC
:101D5300F00E6E17EC0BF0300E0E18D8B412000113
:101D6300D01200135048EC0BF00F6E17EC0BF03051
:101D73000E0F18D8B4120001D0120008C001F009E8
:101D8300C002F0AEEC0CF0C5D7300E48EC0BF017E8
:101D9300EC0BF012001200D388D38AD38C000EA56B
:101DA300EC0BF0810E0FEC0BF0800E0BEC0BF0FE46
:101DB3000E056E000E066E030E076E000E1FEC0E70
:101DC300F03FEC0BF020EEAFF010EE6BF0210EDBEA
:101DD300CFE3FFE806FCE220EED1F010EE8DF02118
:101DE3000EDBCFE3FFE806FCE2F3C060F0F4C06172
:101DF300F0F5C062F0000E00016A6F010E0001668B
:101E03006F000E0001676FFE0E026E1A0E016E2246
:101E1300EC0BF000D08D0E086E000E096E380E0A22
:101E23006E160E0B6E500E0C6E160E0D6ECCEC0D68
:101E3300F0000E0001656F88D08D0E016E000E025A
:101E43006EAEEC0CF001C063F002C064F067D08D9D
:101E53000E016E000E026EAEEC0CF0015000016834
:101E63006F8D0E016E000E026EAEEC0CF001500091
:101E730001696F0001695168C014F0156AD89014A4
:101E8300361536D890143615361410016E155002D7
:101E93006E90EC0BF059D08D0E016E000E026EAEFB
:101EA300EC0CF001500001686F8D0E016E000E0204
:101EB3006EAEEC0CF001500001696F69C001F000D7
:101EC3000168517BEC0DF040D08D0E016E000E02C7
:101ED3006EAEEC0CF001500001666F8D0E016E00CA
:101EE3000E026EAEEC0CF0015000016A6F000E138F
:101EF300D08D0E016E000E026EAEEC0CF0015000A0
:101F030001666F8D0E016E000E026EAEEC0CF000DA
:101F13000E00016A6F010E0001676F16D063C014D3
:101F2300F064C015F01550000AD8A40ED01450AABE
:101F33000AD8B4B1D7060AD8B48AD7160AD8B4C413
:101F4300D7010AD8B4D5D700D08D0E016E000E028A
:101F53006E36EC0BF0146E030E14606ED700D02FA8
:101F6300EC0BF00009D8B456D7000165510001D835
:101F7300A41DD06B0E066E000E076E600E086E0079
:101F83000E096E000E0B6E030E0A6E2BEC0DF06B3A
:101F93000E086E000E096E380E0A6E160E0B6E508A
:101FA3000E0C6E160E0D6E73EC0EF000D000016574
:101FB3002B00016A510001D8A405D000016751002C
:101FC30001D8B413D0000166510001D8B403D07E08
:101FD300EC0BF003D06CEC0BF000D000016A510065
:101FE30001D8B403D000016A0700D0FA0E026E00D4
:0E1FF3000E016E22EC0BF00ED700EF00F0FF97
:020000040020DA
:08000000FFFFFFFFFFFFFFFF00
:020000040030CA
:0E000000FF281F1EFF8881FF03C003E003409E
:00000001FF
