:04000000D5EF0DF03B
:101B540000D000D01200016E01C0B1FF1200A192AA
:101B640001C0B2FF02C0B3FF120020EE01F0015029
:101B7400D9260250DA22DF5012001200016E01C091
:101B8400C9FF00D0C7A0FED7C6BEC69EC95012006A
:101B940020EE01F00150D9260250DA22DF5000086D
:101BA400200F1200120000EE35F0230EEE6AE80654
:101BB400FDE1000EF86E0001A5EF0EF020EE01F03D
:101BC4000150D9260250DA22DF50D8A402D0010EE7
:101BD4001200000E12001200F80E026E2F0E016E9B
:101BE40001D80AD00500FA6E0350FD6E0450FE6E53
:101BF400F850FF6EFA501200F0A2FED7F0921200D5
:101C0400036E03503009016E000E3CEC0EF07E941E
:101C14007F90040E0318D8B404D0050E0318D8A47A
:101C240004D092948994948C12009284949C8B9CFA
:101C3400F188F088120012000350F00BA00AD8A417
:101C4400120002D0120008D00450F00BA00AD8A44D
:101C5400120002D0120000D004C005F00F0E0516C9
:101C64000338F00B051001C0D9FF02C0DAFFDF6EA4
:101C740012001200026E949E7F94938802C0C7FFE4
:101C840001C0C6FFC6500F0B050AD8B405D0C65014
:101C94000F0B040AD8A40AD0938CC6500F0B040A65
:101CA400D8A402D07F90948CC79E1200939C1200FB
:101CB4001200066E01C0D9FF02C0DAFFA00EDF6E6B
:101CC40003C0D9FF04C0DAFFA00EDF6E06C005F022
:101CD400053A0F0E051601C0D9FF02C0DAFF055000
:101CE400DF1206C005F00F0E051603C0D9FF04C0AD
:101CF400DAFF0550DF12120020EE01F00150D92660
:101D04000250DA22DF50046E01C0D9FF02C0DAFFAC
:101D1400DF5004241F0B056E0550010D020EF3263F
:101D2400000EF422F3500124D96EF4500220DA6E2E
:101D340003C0DFFF20EE01F00150D9260250DA2261
:101D4400DF2A12001200D388D38AD38C000E02EC4F
:101D54000EF0810EADEC0DF020EE35F010EE13F028
:101D6400210EDBCFE3FFE806FCE200D0130E076E82
:101D7400000E086E620E096E1B0E0A6E000E0B6ECC
:101D8400000E0C6E14EC0FF0130E076E000E086EAE
:101D9400620E096E1B0E0A6E000E0B6E000E0C6EA8
:101DA40085EC0FF0E3D700EF00F020EE01F00150D6
:101DB400D9260250DA22DF50D8A403D00168026881
:101DC400120001C0D9FF02C0DAFFDF50036E0350D6
:101DD400010D020EF326000EF422F3500124D96EF5
:101DE400F4500220DA6EDF50046E0450056E066A69
:101DF40001C0D9FF02C0DAFFDF50036E03281F0BB6
:101E040001C0D9FF02C0DAFFDF6E20EE01F00150FD
:101E1400D9260250DA22DF0605C001F006C002F01E
:101E24001200120007C001F008C002F0E0EC0DF04F
:101E34000009D8B41200200EC0EC0DF009C003F064
:101E44000AC004F00BC005F00CC006F0200EEEEC46
:101E54000DF0E00EC0EC0DF00F6EAAEC0DF0E00EEC
:101E6400C0EC0DF0106EAAEC0DF0300E0F18D8B4C3
:101E74001200300E1018D8B412002BD00E0E016EC2
:101E8400000E026E0FC003F010C004F01EEC0EF042
:101E940007C001F008C002F00EC003F07EEC0EF0A3
:101EA400E00EC0EC0DF00F6E300E0F18D8B41CD03D
:101EB40001D01AD0AAEC0DF0E00EC0EC0DF0106EBB
:101EC400300E1018D8B410D001D00ED0AAEC0DF0FA
:101ED40000D007C001F008C002F0CAEC0DF00D6E8E
:101EE400060E0D60CBD700D0300E0F18D8B41200F8
:101EF400300E1018D8B41200300EC0EC0DF0AAEC5D
:101F04000DF01200120007C001F008C002F0B7EC97
:101F14000DF00009D8B41200100EC0EC0DF009C089
:101F240003F00AC004F00BC005F00CC006F0100E5C
:101F3400EEEC0DF007C001F008C002F0D7EC0EF093
:101F440001C00FF002C010F0110E016E000E026EFF
:101F5400120E036E000E046E0F505BEC0EF0115067
:101F6400C0EC0DF00D6EAAEC0DF01250C0EC0DF0AB
:101F74000E6EAAEC0DF029D007C001F008C002F0E3
:101F8400D7EC0EF001C00FF002C010F00F2805E1ED
:101F94001028D8B424D001D022D0110E016E000E26
:101FA400026E120E036E000E046E0F505BEC0EF008
:101FB4001150C0EC0DF00D6EAAEC0DF01250C0ECF7
:101FC4000DF00E6EAAEC0DF000D0300E0D18D8B442
:101FD40006D0300E0E18D8B402D0CED700D0300EB2
:101FE4000D18D8B41200300E0E18D8B41200300EEA
:0C1FF400C0EC0DF0AAEC0DF01200120081
:020000040020DA
:08000000FFFFFFFFFFFFFFFF00
:020000040030CA
:0E000000FF281F1FFF8881FF03C003E003409D
:00000001FF
