:04000000C0EF0DF050
:101B1800016E01C0B1FF1200060EE82EFED700D0FC
:101B28001200A19201C0B2FF02C0B3FF1200A1A22D
:101B380002D0010E1200000E1200120020EE01F079
:101B48000150D9260250DA22DF5012001200016E2D
:101B580001C0C9FF00D0C7A0FED7C6BEC69EC950E7
:101B6800120020EE01F00150D9260250DA22DF508F
:101B78000008200F1200120000EE36F0230EEE6A65
:101B8800E806FDE1000EF86E00017EEF0EF020EE93
:101B980001F00150D9260250DA22DF50D8A402D031
:101BA800010E1200000E12001200036E03503009DD
:101BB800016E000E13EC0EF07E947F90040E031855
:101BC800D8B404D0050E0318D8A404D092948994EC
:101BD800948C12009284949C8B9CF188F08812005B
:101BE80012000350F00BA00AD8A4120002D0120071
:101BF80008D00450F00BA00AD8A4120002D012009A
:101C080000D004C005F00F0E05160338F00B0510C0
:101C180001C0D9FF02C0DAFFDF6E12001200026EA7
:101C2800949E7F94938802C0C7FF01C0C6FFC65028
:101C38000F0B050AD8B405D0C6500F0B040AD8A458
:101C48000AD0938CC6500F0B040AD8A402D07F90F8
:101C5800948CC79E1200939C12001200066E01C05D
:101C6800D9FF02C0DAFFA00EDF6E03C0D9FF04C09F
:101C7800DAFFA00EDF6E06C005F0053A0F0E051656
:101C880001C0D9FF02C0DAFF0550DF1206C005F017
:101C98000F0E051603C0D9FF04C0DAFF0550DF1286
:101CA800120020EE01F00150D9260250DA22DF504E
:101CB800D8A403D001680268120001C0D9FF02C08D
:101CC800DAFFDF50036E0350010D020EF326000EFB
:101CD800F422F3500124D96EF4500220DA6EDF505A
:101CE800046E0450056E066A05C001F006C002F0D5
:101CF80012001200D388D38AD38C000ED9EC0DF0D1
:101D0800810E8CEC0DF020EE36F010EE14F0210E62
:101D1800DBCFE3FFE806FCE200D0140E086E000EED
:101D2800096E2A0E0A6E1B0E0B6E360E0C6E1B0EFB
:101D38000D6E53EC0FF0140E086E000E096E2A0E8D
:101D48000A6E1B0E0B6E360E0C6E1B0E0D6EA6EC7D
:101D58000FF0E3D700EF00F020EE01F00150D92694
:101D68000250DA22200EDE18D8B4120001D0120078
:101D780020EE01F00150D9260250DA22DF50046E1D
:101D880001C0D9FF02C0DAFFDF5004241F0B056E23
:101D98000550010D020EF326000EF422F350012423
:101DA800D96EF4500220DA6E03C0DFFF20EE01F096
:101DB8000150D9260250DA22DF2A12001200076EDB
:101DC800FB0E026E4F0E016E01D82DD00500FA6E83
:101DD8000350FD6E0450FE6EF850FF6EFA5012006C
:101DE80001D80AD00500FA6E0550FD6E0650FE6E49
:101DF800F850FF6EFA5012000009D8B414D00750FA
:101E0800ABEC0DF0FB0E026E4F0E016E01D80BD03D
:101E18000500FA6E0350FD6E0450FE6EF850FF6E1A
:101E2800FA50120000D0F0A2DBD7F092120020EE98
:101E380001F00150D9260250DA22DF50D8B412003E
:101E480001D0120001C0D9FF02C0DAFFDF50036ED3
:101E58000350010D020EF326000EF422F350012464
:101E6800D96EF4500220DA6EDF50046E0450056E0D
:101E7800066A01C0D9FF02C0DAFFDF50036E0328EB
:101E88001F0B01C0D9FF02C0DAFFDF6E20EE01F0A0
:101E98000150D9260250DA22DF061200120008C0CB
:101EA80001F009C002F0CBEC0DF00009D8B4120023
:101EB800200EABEC0DF00AC003F00BC004F00CC010
:101EC80005F00DC006F0200EE3EC0EF02BD0E00E6E
:101ED800ABEC0DF00E6E90EC0DF0300E0E18D8B481
:101EE800120001D01200E00EABEC0DF00F6E90EC7A
:101EF8000DF0300E0F18D8B4120001D01200100ED9
:101F0800016E000E026E0EC003F00FC004F0F5EC77
:101F18000DF008C001F009C002F010C003F0B0ECE9
:101F28000EF000D008C001F009C002F0B5EC0DF0C9
:101F38000009D8A4CCD7300EABEC0DF090EC0DF026
:101F48001200120008C001F009C002F0A2EC0DF066
:101F58000009D8B41200100EABEC0DF00AC003F063
:101F68000BC004F00CC005F00DC006F0100EE3EC39
:101F78000EF000D008C001F009C002F055EC0EF0D8
:101F880001C010F002C011F0102805E11128D8B4E2
:101F98002CD001D02AD0120E016E000E026E130E44
:101FA800036E000E046E105032EC0EF01250ABECC3
:101FB8000DF00E6E90EC0DF0300E0E18D8B4120025
:101FC80001D012001350ABEC0DF00F6E90EC0DF039
:101FD800300E0F18D8B4120001D0120008C001F05A
:101FE80009C002F01BEC0FF0C5D7300EABEC0DF0BA
:081FF80090EC0DF01200120044
:020000040020DA
:08000000FFFFFFFFFFFFFFFF00
:020000040030CA
:0E000000FF281F1FFF8881FF03C003E003409D
:00000001FF
