:04000000A7EF0DF069
:101AF400016E01C0B1FF1200850EE82EFED700F082
:101B04001200A19201C0B2FF02C0B3FF120020EE86
:101B140001F00150D9260250DA22DF5012001200DF
:101B2400016E01C0C9FF00D0C7A0FED7C6BEC69EC5
:101B3400C950120020EE01F00150D9260250DA22D9
:101B4400DF500008200F1200120000EE35F0230EC3
:101B5400EE6AE806FDE1000EF86E000179EF0EF082
:101B640020EE01F00150D9260250DA22DF50D8A429
:101B740002D0010E1200000E12001200F80E026EC6
:101B84002F0E016E01D80AD00500FA6E0350FD6EC7
:101B94000450FE6EF850FF6EFA501200F0A2FED709
:101BA400F0921200036E03503009016E000E0EEC29
:101BB4000EF07E947F90040E0318D8B404D0050E62
:101BC4000318D8A404D092948994948C120092841B
:101BD400949C8B9CF188F088120012000350F00B47
:101BE400A00AD8A4120002D0120008D00450F00BAE
:101BF400A00AD8A4120002D0120000D004C005F03C
:101C04000F0E05160338F00B051001C0D9FF02C0F2
:101C1400DAFFDF6E12001200026E949E7F949388A6
:101C240002C0C7FF01C0C6FFC6500F0B050AD8B4D7
:101C340005D0C6500F0B040AD8A40AD0938CC65002
:101C44000F0B040AD8A402D07F90948CC79E120074
:101C5400939C12001200066E01C0D9FF02C0DAFF85
:101C6400A00EDF6E03C0D9FF04C0DAFFA00EDF6E42
:101C740006C005F0053A0F0E051601C0D9FF02C0D3
:101C8400DAFF0550DF1206C005F00F0E051603C07B
:101C9400D9FF04C0DAFF0550DF12120020EE01F074
:101CA4000150D9260250DA22DF50D8A403D00168AB
:101CB4000268120001C0D9FF02C0DAFFDF50036ED0
:101CC4000350010D020EF326000EF422F3500124FA
:101CD400D96EF4500220DA6EDF50046E0450056EA3
:101CE400066A05C001F006C002F012001200D38893
:101CF400D38AD38C000ED4EC0DF0810E7AEC0DF067
:101D040020EE35F010EE13F0210EDBCFE3FFE806F2
:101D1400FCE200D0130E076E000E086E060E096E6C
:101D24001B0E0A6E000E0B6E000E0C6E16EC0FF0FE
:101D3400130E076E000E086E060E096E1B0E0A6E59
:101D4400000E0B6E000E0C6E73EC0FF0E3D700EF79
:101D540000F020EE01F00150D9260250DA22200EC4
:101D6400DE18D8B4120001D0120020EE01F00150A8
:101D7400D9260250DA22DF50046E01C0D9FF02C016
:101D8400DAFFDF5004241F0B056E0550010D020E0F
:101D9400F326000EF422F3500124D96EF4500220ED
:101DA400DA6E03C0DFFF20EE01F00150D9260250A5
:101DB400DA22DF2A1200120020EE01F00150D926A7
:101DC4000250DA22DF50D8B4120001D0120001C050
:101DD400D9FF02C0DAFFDF50036E0350010D020E7B
:101DE400F326000EF422F3500124D96EF45002209D
:101DF400DA6EDF50046E0450056E066A01C0D9FF26
:101E040002C0DAFFDF50036E03281F0B01C0D9FFA5
:101E140002C0DAFFDF6E20EE01F00150D926025035
:101E2400DA22DF061200120007C001F008C002F037
:101E3400B2EC0DF00009D8B41200200E92EC0DF0B3
:101E440009C003F00AC004F00BC005F00CC006F092
:101E5400200EC0EC0DF02BD0E00E92EC0DF00F6EC6
:101E6400300E0F18D8B42ED001D02CD07EEC0DF04B
:101E7400E00E92EC0DF0106E300E1018D8B422D093
:101E840001D020D07EEC0DF00E0E016E000E026E1D
:101E94000FC003F010C004F0F0EC0DF007C001F027
:101EA40008C002F00EC003F0ABEC0EF000D007C087
:101EB40001F008C002F09CEC0DF00D6E1F0E0D60D9
:101EC400CBD700D0300E0F18D8B41200300E101833
:101ED400D8B41200300E92EC0DF07EEC0DF012002E
:101EE400120007C001F008C002F089EC0DF00009EF
:101EF400D8B41200100E92EC0DF009C003F00AC021
:101F040004F00BC005F00CC006F0100EC0EC0DF090
:101F140007C001F008C002F050EC0EF001C00DF053
:101F240002C00EF0110E016E000E026E120E036E50
:101F3400000E046E0D502DEC0EF0115092EC0DF0CD
:101F44000F6E7EEC0DF0125092EC0DF0106E7EECE4
:101F54000DF03BD007C001F008C002F0DEEC0EF03B
:101F640007C001F008C002F050EC0EF001C00DF003
:101F740002C00EF00D2805E10E28D8B430D001D0EF
:101F84002ED0110E016E000E026E120E036E000EA4
:101F9400046E0D502DEC0EF0115092EC0DF00F6EFE
:101FA4007EEC0DF0300E0F18D8B419D001D017D034
:101FB400125092EC0DF0106E7EEC0DF0300E1018F5
:101FC400D8B40DD002D00BD000D0300E0F18D8B436
:101FD40006D0300E1018D8B402D0BCD700D0300EC2
:101FE4000F18D8B41200300E1018D8B41200300EE6
:0C1FF40092EC0DF07EEC0DF012001200DB
:020000040020DA
:08000000FFFFFFFFFFFFFFFF00
:020000040030CA
:0E000000FF281F1FFF8881FF03C003E003409D
:00000001FF
