:040000005EEF0FF0B0
:101EA5004D616E75656C00016E01C0C9FF00D0C73C
:101EB500A0FED7C950120000EE30F0200EEE6AE801
:101EC50006FDE1A50EF66E1E0EF76E000EF86E000D
:101ED500EE50F010EE07F00900F5CFEEFFE550E10A
:101EE50050FAE1000177EF0FF0D388D38AD38C2025
:101EF500EE30F010EE09F01F0EDBCFE3FFE806FC35
:101F0500E2000E016E000E026E000E036E000EA1C1
:101F1500EC0FF020EE50F010EE29F0060EDBCFE3CB
:101F2500FFE806FCE200D0290E026E000E036E06E5
:101F35000E046ECEEC0FF0F7D700EF00F0046E94B0
:101F45009EC6500418F00B0418C66E01B002D0C628
:101F55009801D0C68803B002D0C79E01D0C78E05B0
:101F65000E0418D8B404D0040E0418D8A409D093CC
:101F75008C040E0418D8B4948CC79C949C8B9C0834
:101F8500D0939C948C7F9002B002D0C79C01D0C79F
:101F95008C7F94C68A120004500F0BA00956EC0FD3
:101FA500F000D082ACFED7000E086E22D00850019A
:101FB5000DF3500224D96EF4500320DA6EDF50057C
:101FC5006E05380F0BF009066E0850010DF350022F
:101FD50024D96EF4500320DA6EDF500F0BF0090799
:101FE5006E065056EC0FF0075056EC0FF0082A001D
:0C1FF500D00450085CD8A0DAD71200FF1E
:020000040020DA
:08000000FFFFFFFFFFFFFFFF00
:020000040030CA
:0E000000FF281F1FFF8881FF03C003E003409D
:00000001FF
