:0400000022EF0CF0EF
:1017710055DD00016E01C0D5FF1200016E01C0B13F
:10178100FF1200060EE82EFED700D01200A1920132
:10179100C0B2FF02C0B3FF1200F29401C0D6FF0233
:1017A100C0D7FF1200A1A202D0010E1200000E123A
:1017B100001200F2A402D0010E1200000E1200125B
:1017C1000020EE01F00150D9260250DA22DF50123A
:1017D100001200016E01C0C9FF00D0C7A0FED7C62C
:1017E100BEC69EC950120020EE01F00150D926025A
:1017F10050DA22DF500008200F1200120020EE0103
:10180100F00150D9260250DA22DF50D8A402D001CB
:101811000E1200000E1200120001C003F0033ABDC7
:10182100500318CF0B0318BD6E01C003F002C004B2
:10183100F0D89004320332D890043203320350BE00
:101841006E120000EEABF0440EEE6AE806FDE11602
:101851006A710EF66E170EF76E000EF86E0900F53E
:10186100CFEFF00900F5CFF0F00900F5CFF1F0006E
:101871000EF86E000132EF0FF0036E0350300901D4
:101881006E000E77EC0CF07E947F90040E0318D856
:10189100B404D0050E0318D8A404D092948994946A
:1018A1008C12009284949C8B9CF188F08812001217
:1018B100000350F00BA00AD8A4120002D0120008B5
:1018C100D00450F00BA00AD8A4120002D0120000DC
:1018D100D004C005F00F0E05160338F00B051001FA
:1018E100C0D9FF02C0DAFFDF6E12001200026E944F
:1018F1009E7F94938802C0C7FF01C0C6FFC6500FE8
:101901000B050AD8B405D0C6500F0B040AD8A40A97
:10191100D0938CC6500F0B040AD8A402D07F9094A8
:101921008CC79E1200939C12001200066E01C0D952
:10193100FF02C0DAFFA00EDF6E03C0D9FF04C0DAD8
:10194100FFA00EDF6E06C005F0053A0F0E05160169
:10195100C0D9FF02C0DAFF0550DF1206C005F00F43
:101961000E051603C0D9FF04C0DAFF0550DF1212BD
:101971000020EE01F00150D9260250DA22DF50D8C2
:10198100A403D001680268120001C0D9FF02C0DAC5
:10199100FFDF50036E0350010D020EF326000EF41B
:1019A10022F3500124D96EF4500220DA6EDF500484
:1019B1006E0450056E066A05C001F006C002F01201
:1019C100001200076ED40E026E3F0E016E01D82D7B
:1019D100D00500FA6E0350FD6E0450FE6EF850FF04
:1019E1006EFA50120001D80AD00500FA6E0550FDBA
:1019F1006E0650FE6EF850FF6EFA5012000009D8C4
:101A0100B414D00750EAEC0BF0D40E026E3F0E0175
:101A11006E01D80BD00500FA6E0350FD6E0450FE26
:101A21006EF850FF6EFA50120000D0F0A2DBD7F032
:101A310092120020EE01F00150D9260250DA22DF85
:101A410050D8A403D001680268120001C0D9FF0276
:101A5100C0DAFFDF50036E0350010D020EF32600C2
:101A61000EF422F3500124D96EF4500220DA6EDF15
:101A710050046E0450056E066A01C0D9FF02C0DA37
:101A8100FFDF50036E03281F0B01C0D9FF02C0DA2C
:101A9100FFDF6E20EE01F00150D9260250DA22DF7D
:101AA1000605C001F006C002F01200120020EE018E
:101AB100F00150D9260250DA22200EDE18D8A402F5
:101AC100D0000E120020EE01F00150D9260250DAAA
:101AD10022DF50046E01C0D9FF02C0DAFFDF5004DB
:101AE100241F0B056E0550010D020EF326000EF4A6
:101AF10022F3500124D96EF4500220DA6E03C0DFC4
:101B0100FF20EE01F00150D9260250DA22DF2A200F
:101B1100EE01F00150D9260250DA22200EDE18D84B
:101B2100A402D0010E1200000E12001200046ECAAF
:101B31008409D0FC0ECA1611D000D0CA50FC0B018A
:101B410009CA6E0BD00250000AD8B4F3D7010AD8E3
:101B5100B4F4D7030AD8B4F1D700D03F0EBD1612A2
:101B6100D0BD50F00B0C0907D0BD50F00B0D09038F
:101B7100D0BD50F00B0E09BD6E12D0BD80BD82BD2F
:101B810084BD860DD00450000AD8B4EAD7010AD822
:101B9100B4EBD7030AD8B4ECD7010AD8B4EED7B95D
:101BA1008803A002D08B9A949A03A202D08B9894B6
:101BB1009803A402D08B96949603A602D08B94949A
:101BC1009401C0CBFF12000BAE26D0000E0E6E00AA
:101BD1000E0D6E16D006C001F007C002F00D5008C0
:101BE10024D96E0E500920DA6EDF50036E57EC0DCA
:101BF100F00009D8A4120001D012000D4A0E2A00EB
:101C0100D00D500824D96E0E500920DA6EDF50D85D
:101C1100B41200E0D71200000E0E6E000E0D6E160B
:101C2100D006C001F007C002F00D500824D96E0E95
:101C3100500920DA6EDF50036E57EC0DF00009D821
:101C4100A4120001D012000D4A0E2A00D00A500D34
:101C51005C0E50800A0C6E0B50800A0C58D8B012E2
:101C610000DFD712001200036E3DD0F00EB96E12E4
:101C7100000150D8B403D0026A022A01D0026AB925
:101C8100500218FE0B0218B96E12000150D8B403AD
:101C9100D0026A022A01D0026A0246B9500218FD36
:101CA1000B0218B96E12000150D8B403D0026A02B7
:101CB1002A01D0026A02460246B9500218FB0B0201
:101CC10018B96E12000150D8B403D0026A022A0179
:101CD100D0026A024602460246B9500218F70B02C8
:101CE10018B96E12000350000AD8B4BFD7010AD840
:101CF100B4BFD7030AD8B4C9D7060AD8B4D4D70C0D
:101D01000AD8A41200DFD7120008C001F009C002EE
:101D1100F0FFEC0BF00009D8B41200200EEAEC0B36
:101D2100F00AC003F00BC004F00CC005F00DC006B2
:101D3100F0200EE2EC0CF02BD0E00EEAEC0BF00EF2
:101D41006EC2EC0BF0300E0E18D8B4120001D01296
:101D510000E00EEAEC0BF00F6EC2EC0BF0300E0F50
:101D610018D8B4120001D01200100E016E000E023C
:101D71006E0EC003F00FC004F059EC0CF008C00166
:101D8100F009C002F010C003F057EC0DF000D008CC
:101D9100C001F009C002F0F4EC0BF00009D8A4CCAA
:101DA100D7300EEAEC0BF0C2EC0BF0120012000877
:101DB100C001F009C002F0E1EC0BF00009D8B41247
:101DC10000100EEAEC0BF00AC003F00BC004F00C9B
:101DD100C005F00DC006F0100EE2EC0CF000D008CA
:101DE100C001F009C002F0B9EC0CF001C010F00222
:101DF100C011F0102805E11128D8B42CD001D02A47
:101E0100D0120E016E000E026E130E036E000E0450
:101E11006E105096EC0CF01250EAEC0BF00E6EC204
:101E2100EC0BF0300E0E18D8B4120001D0120013D2
:101E310050EAEC0BF00F6EC2EC0BF0300E0F18D81D
:101E4100B4120001D0120008C001F009C002F01A5A
:101E5100EC0DF0C5D7300EEAEC0BF0C2EC0BF01232
:101E6100001200D388D38AD38C000E3DEC0CF08194
:101E71000EBEEC0BF0870EBAEC0BF0FE0E016E00FD
:101E81000E026E030E036E000E97EC0DF020EEAB0A
:101E9100F010EE67F0210EDBCFE3FFE806FCE22055
:101EA100EECDF010EE89F0210EDBCFE3FFE806FC6A
:101EB100E2EFC060F0F0C061F0F1C062F0D60E0256
:101EC1006ED80E016ECDEC0BF000D0890E086E00BD
:101ED1000E096E8E0E0A6E170E0B6EA60E0C6E1785
:101EE1000E0D6E85EC0EF0890E016E000E026EE194
:101EF100EC0BF0146E020E146458D0890E016E00C2
:101F01000E026E1AEC0DF001C063F002C064F03DE8
:101F1100D0890E016E000E026E1AEC0DF001500018
:101F210001656F890E016E000E026E1AEC0DF00153
:101F3100500001666F0001665165C014F0156AD842
:101F41009014361536D890143615361410016E15C6
:101F510050026E0DEC0CF029D0890E016E000E02BC
:101F61006E1AEC0DF001500001656F890E016E00D3
:101F71000E026E1AEC0DF001500001666F66C00191
:101F8100F00001655134EC0EF010D063C014F06420
:101F9100C015F01550000AD8A408D01450AA0AD8C8
:101FA100B4DBD7060AD8B4B4D700D0DAEC0BF00012
:101FB10009D8B48BD7670E066E000E076E600E0847
:101FC1006E000E096E000E0B6E030E0A6EE4EC0D30
:101FD100F0670E086E000E096E8E0E0A6E170E0B5C
:101FE1006EA60E0C6E170E0D6ED8EC0EF0D60E020C
:101FF1006ED80E016ECDEC0BF068D700EF00F0FF4C
:020000040020DA
:08000000FFFFFFFFFFFFFFFF00
:020000040030CA
:0E000000FF281F1FFF8881FF03C003E003409D
:00000001FF
